:020000040800F2
:10000000B0B10520B9030008C1030008A903000826
:10001000C5030008C7030008C9030008000000006A
:10002000000000000000000000000000CB030008FA
:10003000CD03000800000000CF0300085D90000819
:10004000D3030008D3030008D3030008D303000838
:10005000D3030008D3030008798600083D87000811
:100060006187000885870008A9870008D303000876
:10007000D3030008D3030008D3030008D303000808
:10008000D3030008D3030008D3030008D3030008F8
:10009000D3030008D3030008D3030008CD8700086A
:1000A000D30300086D910008D3030008D3030008B0
:1000B000E99100081592000845920008D303000852
:1000C000D3030008D3030008D3030008D3030008B8
:1000D000D30300086D97000879970008D303000840
:1000E0009D860008D3030008D3030008D30300084B
:1000F00005930008D3030008D3030008D3030008C6
:10010000D3030008D303000875920008D303000846
:10011000D3030008D3030008A5920008D592000875
:10012000D3030008D3030008E9850008D3030008BF
:10013000D3030008D3030008D3030008D303000847
:10014000D3030008D3030008D3030008D303000837
:10015000D3030008D303000800000000D303000805
:10016000D3030008D30300080000000000000000D3
:10017000D3030008D3030008D303000800000000E5
:1001800000000000D3030008D3030008D3030008D5
:10019000D303000800000000000000000000000081
:1001A000000000000000000000000000D303000871
:1001B000D303000800000000D30300080000000083
:1001C000000000000000000000000000000000002F
:1001D0000000000000000000D3030008D303000863
:1001E000D3030008B9910008D3030008D303000823
:1001F000D3030008D3030008D3030008D303000887
:10020000D3030008D3030008D303000800F002F86A
:1002100000F0B8F80AA090E8000C82448344AAF1E8
:100220000107DA4501D100F0ADF8AFF2090EBAE8E6
:100230000F0013F0010F18BFFB1A43F0010318471A
:1002400068630400886304000A444FF0000C10F84F
:10025000013B13F0070408BF10F8014B1D1108BF44
:1002600010F8015B641E05D010F8016B641E01F8E4
:10027000016BF9D113F0080F1EBF10F8014BAD1C34
:100280000C1B09D16D1E58BF01F801CBFAD505E052
:1002900014F8016B01F8016B6D1EF9D59142D6D3AC
:1002A000704700000023002400250026103A28BFD4
:1002B00078C1FBD8520728BF30C148BF0B607047D8
:1002C0006E2900F0E587702900F04783662931F038
:1002D0007782652931F07482672931F07182612952
:1002E00031F0708203681B0A28BF41F08001692940
:1002F00000F02282642900F01F82752900F01C8220
:100300006F2900F0D482782900F01383E92901F0E5
:10031000B383E42901F0B083F52901F0AD83EF291F
:1003200000F0D182F82900F012830368DB0928BFAE
:1003300041F08001632901F07C83732901F08183FE
:10034000E32901F08C83F32901F0918300207047A9
:100350001FB531F028FA9DE8030000F0FFFE00F021
:10036000D9FE0400002000212EF0B8F9401C606086
:10037000002000212EF0C8F9E06002F0B3FD00F08B
:10038000B1FE1FBD02F074F81146FFF7E1FF2CF03B
:1003900055FE20F0E3FC0000EFF308807047EFF318
:1003A0000980704768467047704669461DF072F9CB
:1003B0002EF036F9FEE7000009488047094800475B
:1003C000FEE7FEE7FEE7FEE7FEE7FEE7FEE7FEE705
:1003D000FEE7FEE704480549054A064B7047000062
:1003E0006D9000080D020008B09F0520B0B10520F7
:1003F000B0A10520B0A105207047000010B500F0A5
:1004000089FE001D10BD00BFD5E2020070B5064692
:1004100000F07CFE056806F10B0020F00704B442F2
:100420009CBF002070BD2B466A68BAB11068A0421C
:1004300010D304F1080188423CBF5068586007D3CC
:100440005168101941601168091B016058601460FF
:10045000101D70BD13465268002AE7D12146284678
:1004600000F068FE0028DED170BD70B50446051F9F
:1004700000F04CFE0068002C14BF446870BD002CD6
:1004800018BFAC423CBF20466468F8D301680A1824
:10049000AA4218BF456003D12A680546114401608D
:1004A00028684119A1421CBF6C6070BD6168696019
:1004B00021680844286070BD53EA020C00F069808E
:1004C0002DE9F04B4FF00006002B1FBFB3FA83F568
:1004D00003FA05F424FA05F65E4012BF1643B2FA99
:1004E00082F502FA05F4C5F120051EBF22FA05FCCB
:1004F00044EA0C04203556EA044C4FEA144418BF71
:10050000641C4FF000084FF00009904271EB030C9F
:1005100039D3002919BFB1FA81F701FA07F6B0FA09
:1005200080F700FA07F6C7F120071EBF20FA07FC84
:1005300046EA0C062037B6FBF4FCA7EB0507103F94
:1005400007F01F0BCBF120060CFA0BFB2CFA06F67A
:1005500044BFB3460026202FA4BF5E464FF0000BD9
:100560005BEA060C08BF4FF0010B19EB0B09ABFB64
:10057000027C48EB0608C01B06FB02CC0BFB03CC3D
:1005800071EB0C01C1E70B46024641464846BDE807
:10059000F08B13B54FF000004FF00001AFF3008077
:1005A000BDE81C40704700007CB51D4616460C0097
:1005B000009001D02044401E074B7B442A466946E8
:1005C0000190304601F00BFA05461CB10020694647
:1005D00001F018FA28467CBD511400007CB51D4678
:1005E00016460C00009001D02044401E074B7B446F
:1005F0002A4669460190304601F0F1F905461CB1E2
:100600000020694601F0FEF928467CBD1D1400005B
:100610000FB41CB5084B06AA7B44694600900598A8
:1006200001F0DDF904460020694601F0EBF92046AF
:100630001CBC5DF814FB0000E91300000FB47CB58E
:100640000C0009AA009001D02044401E084B7B44B6
:1006500069460190089801F0C2F905461CB10020D6
:10066000694601F0CFF928467CBC5DF814FB000018
:10067000BD13000070B5044685690068C10601D548
:10068000302600E02026C00707D070BDD4E9012144
:1006900030469047206A401C20626D1EF6D570BD22
:1006A00070B5044685690078C00707D170BDD4E9EC
:1006B000012120209047206A401C20626D1EF6D543
:1006C00070BD09684A0501D540B27047C905FCD51F
:1006D00000B2704709684A0501D5C0B27047C90524
:1006E000FCD580B2704770B50C460546012A05D08E
:1006F0002878800600D5EA69002302E0012305E09E
:100700005B1C934202D2E05C0028F9D1A869E6188C
:10071000C01AA861286A184428622846FFF7AAFF71
:1007200004E0D5E9012114F8010B9047B442F8D355
:100730002846FFF7B5FF70BD2DE9F04106460024BD
:1007400010687529314616A510D0FFF7BAFF0028AA
:1007500002DA404213A507E031688A0701D512A5E5
:1007600002E0490704D511A5012401E0FFF7B2FF1B
:1007700000210A2206F1240709E0B0FBF2FCB0FBDD
:10078000F2F302FB1C00303078541846491C002854
:10079000F3D123462A463046BDE8F04100F01FBDA4
:1007A000000000002D0000002B00000020000000D1
:1007B0002DE9FF5F15468A460446DFF8AC80F84411
:1007C0000027D8E900103E46CDE9001010E03AF8C5
:1007D00016106A4602A801F009FA411C07D02178D8
:1007E000890603D5E269391891420DD80744761C71
:1007F0002078800602D5E069B84205DDAE42E6DB2E
:100800003AF816000028E2D1A069C01BA06120467A
:10081000FFF730FFD8E90010CDE90010002017E005
:100820003AF818106A4602A801F0E0F9B0F1FF3F6B
:1008300081460BD000250DF1080B05E0D4E901211C
:100840001BF8050090476D1C4D45F7D308F10100DA
:10085000B0428046E4DB206A384420622046FFF73D
:100860001FFFBDE8FF9F00006A49040030B400216B
:1008700000F1240408E002F00705D208303542EA0E
:100880004372DB086554491C52EA0305F3D104683E
:10089000002310A2250707D5A40600D421B1C469FE
:1008A00001230DA2641EC46130BC00F098BC10B5D9
:1008B000044621461068FFF70DFF02462046BDE8BA
:1008C00010400023D2E7D21D22F00701D1E9002316
:1008D000CCE700000000000030000000F0B40D463E
:1008E0000188090502D5214C7C4402E01F4C7C4460
:1008F0000E34002100F1240608E002F00F0712096F
:10090000E75D42EA03721B097754491C52EA030768
:10091000F3D102780023120704D5702D06D009B157
:10092000022311342246F0BC00F059BC01231034DC
:10093000F8E770B504460D4621461068FFF7CAFE79
:10094000024629462046BDE870400023C6E7D21D76
:1009500022F00703D3E90023C0E70368126843F0DD
:10096000200303600823C3610023B7E7484804005D
:100970002DE9F05F894604464FF0000ADFF874B1B4
:10098000FB44C0F820A02046E1688847002874D0C6
:10099000252806D0D4E901219047206A401C206216
:1009A000F1E700265F462046E16888472028054693
:1009B00007DB312D05D2781910F8200C08B1064359
:1009C000F1E7B00701D526F00406C4F81CA0002703
:1009D000C4F818A02A2D09D0284619F08BFE38B388
:1009E00004EB8708303DC8F8185019E059F8041B8B
:1009F000204604EB87029161E1688847012F054694
:100A000018D1E069002820DA26F020061DE0D8F889
:100A1000180000EB800005EB40003038C8F81800E3
:100A20002046E1688847054619F064FE0028EED1AB
:100A3000012F0AD02E2D08D12046E16888477F1C5F
:100A40000546022F46F02006C4DBA069002803DA21
:100A5000404246F00106A061F00701D026F01006E2
:100A60006C2D0BD0682D09D04C2D39D06A2D35D086
:100A7000742D35D07A2D33D016E038E0E1682F465A
:100A800020468847B842054609D16C2F26D04FF43E
:100A90008060E168064320468847054604E06C2FE5
:100AA0001AD04FF4807006430DB3A5F14100192808
:100AB00002D8203546F400664A462946204626607C
:100AC0004E46FFF7FDFB80B101280BD0F61D26F046
:100AD000070000F1080956E74020E4E78020D8E746
:100AE0000020D6E706F104094DE7284652E7206AC0
:100AF000BDE8F09FD84704002DE9FF5F1D464FF089
:100B0000FF3B91464FF000085F46D5E90146A969D1
:100B100001987F1C8847296A824688470028F6D1B9
:100B2000BAF1FF3F0CD0002E24F4C06419DD60063A
:100B300014D5BAF12B0F09D0BAF12D0F0ED103E065
:100B4000584604B0BDE8F09F44F48064A969019858
:100B50007F1C8847761E8246002E02DDBAF1300FD8
:100B600003D0B9F1000F26D032E0A969761E0198B2
:100B70007F1C44F400748847002E824605DDBAF1DC
:100B8000780F06D0BAF1580F03D0B9F1000F10D08A
:100B90001EE0B9F1000F02D0B9F1100F18D1A96908
:100BA000761E01987F1C24F400748847824610202A
:100BB00002E0082000E00A20814609E0A96908FB5C
:100BC0000908761E01987F1C44F400748847824609
:100BD000002E05DD4946504600F08CFF0028EDDA76
:100BE000E96901988847A00502D46FF00100A8E7E1
:100BF000E00725D1600613D5600502D5C8F10000D5
:100C000000E0404629680A1D2A600968220501D5CE
:100C1000087015E0220701D5088011E008600FE098
:100C20002868011D29600068210502D580F8008030
:100C300006E0210702D5A0F8008001E0C0F800809E
:100C400038467EE770B5064600F06CFA0468054643
:100C500030460A22002100F091FF2C6070BD70B573
:100C6000064600F05FFA0468054630460A22002175
:100C700000F084FF2C6070BD2DE9F0410746154659
:100C80000E461020FFF7C2FB04000AD06760C4E9DB
:100C9000026500F043FA0168216004600020BDE8AD
:100CA000F0810120FBE7401ECAB210F8011F8A4202
:100CB00002D00029F9D10020704730B505460B4617
:100CC0002A4613F8014B12F8010B08B1A042F8D0E4
:100CD0001CB1002802D06D1CF1E7284630BD40EA67
:100CE000010310B59B070FD1042A0DD310C808C902
:100CF000121F9C42F8D020BA19BA884201D90120AB
:100D000010BD4FF0FF3010BD1AB1D30703D0521CF5
:100D100007E0002010BD10F8013B11F8014B1B1B30
:100D200007D110F8013B11F8014B1B1B01D1921E9A
:100D3000F1D1184610BD40EA0103024630B59B07C9
:100D400010D14FF0013400E008C208C91D1B9D43BB
:100D500015EAC41FF8D013F0FF0102F8011B0DD0F3
:100D60001B0AF8E711F8013B002B02F8013B05D004
:100D700011F8013B002B02F8013BF3D130BD0022FA
:100D8000CBB210F8011B994200D1421E0029F8D1C4
:100D90001046704710B5431C02E010F8011B71B1FA
:100DA0008107FAD14FF0013202C88C1A8C4314EA41
:100DB000C211F9D0C01A0A0603D0C01E10BDC01A55
:100DC00010BD0A0401D0801E10BD0902FCD0401ED7
:100DD00010BD421E12F8013F002BFBD111F8013B60
:100DE000002B02F8013BF9D17047032A40F2308012
:100DF00010F0030C00F0158011F8013BBCF1020F5C
:100E0000624498BF11F801CB00F8013B38BF11F8DC
:100E1000013BA2F1040298BF00F801CB38BF00F8F3
:100E2000013B11F0030300F06B80083AC0F008802A
:100E300051F8043B083A51F804CBA0E80810F5E754
:100E4000121D5CBF51F8043B40F8043BAFF3008037
:100E5000D20724BF11F8013B11F801CB48BF11F8AC
:100E6000012B24BF00F8013B00F801CB48BF00F87C
:100E7000012B7047431A28BF9A427FF6B6AF032A68
:100E80001044114440F2268010F0030F1EBF11F8E9
:100E9000013D521E00F8013D10F0030F7FF4F6AF44
:100EA00011F0030300F0FD86083AC0F00B8051F802
:100EB000043D083A51F804CD40F8043D40F804CD13
:100EC000FFF7F3BF121D5CBF51F8043D40F8043D2D
:100ED000AFF30080D20724BF11F8013D11F801CD16
:100EE00048BF11F8012C24BF00F8013D00F801CDE6
:100EF00048BF00F8012C704701B5FFF776FF01BD30
:100F000010B5203AC0F00B80B1E81850203AA0E8A4
:100F10001850B1E81850A0E81850BFF4F5AF5FEAD8
:100F2000027C24BFB1E81850A0E8185044BF18C98B
:100F300018C0BDE810405FEA827C24BF51F8043B32
:100F400040F8043B08BF7047D20728BF31F8023B86
:100F500048BF11F8012B28BF20F8023B48BF00F81A
:100F6000012B704702F0FF0343EA032242EA0242E8
:100F700000F002B84FF000020429C0F0128010F017
:100F8000030C00F01B80CCF1040CBCF1020F18BF65
:100F900000F8012BA8BF20F8022BA1EB0C0100F0F8
:100FA0000DB85FEAC17C24BF00F8012B00F8012BCB
:100FB00048BF00F8012B70474FF0000200B5134600
:100FC00094469646203922BFA0E80C50A0E80C5069
:100FD000B1F12001BFF4F7AF090728BFA0E80C501A
:100FE00048BF0CC05DF804EB890028BF40F8042B13
:100FF00008BF704748BF20F8022B11F0804F18BF80
:1010000000F8012B704710B5044610F0030F08BF1D
:1010100011F0030F40F015804FF0013E121FC0F297
:101020000E8051F8043BA3EB0E0C2CEA030C1CEAD7
:10103000CE1C08BF40F8043BF0D0A1F1040102F13E
:101040000402521E08DB11F8013B002B00F8013BA3
:10105000F7D11146FFF78EFF204610BD4FF0013C3F
:1010600050F8042B51F8043B9A4221D1A2EB0C0317
:10107000934313EACC1317D150F8042B51F8043BD7
:101080009A4215D1A2EB0C03934313EACC130BD174
:1010900050F8042B51F8043B9A4209D1A2EB0C03FF
:1010A000934313EACC13DBD04FF00000704700BF2E
:1010B000D01A01BAB1FA81F101F0180122FA01F057
:1010C000CB40C1F12001DBB2C0B2C01A2CFA01F34F
:1010D000D11A914311EAC311E6D1704770477047A6
:1010E0007047000070B5064C7C44064D7D4403E01B
:1010F000206820448047241DAC42F9D170BD000017
:1011000028560400685604007047000000487047E5
:10111000209E052000487047389E052000487047F3
:10112000509E052000487047189E05207047704764
:101130007047704738B504460A4600206946AFF349
:101140000080002808BF38BD02460099204600F004
:10115000D7FD012038BD012001F02EB9F8B5AFF35D
:101160000080054600200C46102000BF0646A81946
:10117000A0420DD9324669460020AFF30080070037
:1011800008BF01F019F90098A04218BF0546C4191C
:10119000FFF7BCFF05600746F01D20F00700461969
:1011A000284600F00AF8B44208BFF8BDA21B314639
:1011B0003868BDE8F84000F0A3BD00210160C0E937
:1011C000011070471020704710B5FFF7ABFF0068A3
:1011D00010BD10B50446FFF7A5FF046010BD2DE952
:1011E000F0470D4699469246044600F124080168EE
:1011F000880604D5E06921F01001216000E001209B
:10120000A84201DD471B00E00027A1697A1902EB23
:101210000900081AA0612078C00602D42046FFF712
:1012200029FA002608E0D4E901211AF806009047BF
:10123000206A401C761C20624E45F4DB2078C006F4
:101240000AD52046FFF716FA06E0D4E9012130203E
:101250009047206A401C2062381EA7F10107F4DC89
:1012600007E0D4E9012118F805009047206A401CE6
:101270002062281EA5F10105F3DC2046FFF710FAD5
:101280002078000602D50220BDE8F0870120FBE7A8
:1012900011680268006A530501D508700AE0D30599
:1012A00001D5088006E0130603D5C217C1E9000284
:1012B00000E008600120704770472DE9FF4F0C46A1
:1012C0001E464FF0FF378BB0D2E90001DDF8608099
:1012D0000A908A46C1F30A5505B93D4600210846E1
:1012E0004FF00000BAF1000F00F4400005DA00EB07
:1012F00080004FF4400101EA50004FEA9059B9F1E3
:10130000010F00DDB9460A9850EA4A000ED044F6B3
:101310001050A5F2FF3545432F14B8F1000F1ED031
:101320007542291E1EDDC9F100021CE0B8F1010F53
:101330004FF0000001D0302103E0F24305E02154DA
:10134000401CB042FBDB30460022002121540B99A7
:10135000C1F80880C1E900200FB0BDE8F08FBD1BC7
:101360006D1CDEE74A4600DA694206A800F0A2FFDB
:1013700006AB93E8070003AB83E8070050460A99E1
:1013800002F01EFD8DE80700A0F500501F38009008
:101390000398002D0ADD42F21F014A46084400234B
:1013A00003A90390684602F0C9FF09E0A0F50050C8
:1013B0004A461F38002303A90390684602F0E8FF5D
:1013C0008DE807000004000C03D04FF0FF30410807
:1013D00000E01046B8F1000F03D00022009215463D
:1013E0001EE0751E05D400F0A5FC303262556D1E5E
:1013F000F9D5B3460122084302D000227F1C04E045
:101400002078302801D100227F1E002A099784D03D
:101410001DE0112D07DA00F08DFC303262556D1C95
:1014200050EA0102F5D1084302D00098C8B10EE09D
:101430000021681E05E0235C625C63542254401E58
:10144000491C8142F7DBAB46A81B401E09900020D7
:1014500004F80B000B98099AC0F80880C0E9002B2B
:101460007AE711264FF0000857E72DE9F04F88463C
:101470000446D21D22F0070191B0D1E90001CDE967
:101480000A0116F048FF02460B98C00F01D02D202C
:1014900007E02068810701D52B2002E0202101EA26
:1014A000C000032A099001D0072A05DB0346414604
:1014B000204600F097FC0BE12078800601D5E0691A
:1014C00000E00620B8F1650F814606D0B8F1660F3E
:1014D00018D0B8F1670F70D131E00020B9F1110FC9
:1014E000009001DB112301E009F101030AAA01A91F
:1014F0000CA8FFF7E2FEDDE90C70002609F10105FA
:10150000834647E001204B4600904FF000470AAA6F
:1015100001A90CA8FFF7D1FEDDE90DB00C995D46DD
:10152000002610B909F101000D18B9EB050003D42C
:10153000C0F1FF3609F10105A5EB09002BE0B9F177
:10154000010F01DA4FF001090020B9F1110F0090ED
:10155000484601DD112300E003460AAA01A90CA8B0
:10156000FFF7ABFEDDE90C704D4600268346207880
:1015700000070AD4AB4500DA5D4601A8012D04DD61
:10158000411911F8011C302907D04F4502DA17F133
:10159000040F04DA012082460FE06D1EEEE7002FF3
:1015A00002DCED1B3E4403E0781CA84200DD7D1CFC
:1015B000B81B00F1010A4FF000472078000703D460
:1015C000AA4501DB4FF0FF3A0021B7F1004F0DF1C2
:1015D00043088DF8431024D002202B23002F01DA7A
:1015E0007F422D230A21021EA0F1010000DC5FB121
:1015F00097FBF1FC97FBF1F201FB1C7C17460CF109
:10160000300C08F801CDEEE7A8F101000370218845
:10161000090501D5452100E06521A0F1010800F888
:10162000011C09980FA9A1EB0807FF1D00B10120BB
:10163000411901EBEA70A1693844081A401EA06103
:101640002078C00602D42046FFF714F8099828B184
:10165000D4E901219047206A401C20622078C0060E
:1016600022D52046FFF706F81EE0002E04DBB34526
:1016700002DD01A8805D00E03020D4E9012190471F
:10168000206A401C2062761CAAF101005FEA000A71
:101690000AD1FFF73FFDC0680168405CD4E9012131
:1016A0009047206A401C2062281EA5F10105DCDC61
:1016B00007E0D4E9012118F8010B9047206A401C8B
:1016C0002062381EA7F10107F3DC2046FEF7E8FF91
:1016D000032011B041E600002DE9F04F04460D460D
:1016E000D21D22F0070089B0D0E90097484639465C
:1016F00016F011FE0246F80F01D02D2307E02068F6
:10170000810701D52B2302E0202101EAC0038DF8D7
:1017100020300BB1012000E00020032A824601D0D6
:10172000072A04DB2946204600F05CFB3FE12078D5
:10173000800601D40D2500E0E569C7F30A560D2D9A
:1017400049DA00214FEA175B08464FF00000002FEE
:1017500000F4400007DA00EB80004FF4400100EB9A
:10176000D07001EA60008115012901DD4FF0FF31E1
:1017700000224FEA850CBCF1180F06D31346ACF1DA
:1017800018004FF08052C24003E04FF4801323FA58
:101790000CF30CF10C0CBCF1200F04D3ACF1200CB9
:1017A00009FA0CF001E007FA0CF000294FF00048AC
:1017B00001DD18B90FE00ED140450CD319EB020939
:1017C0005F4121B9404502D19F4329EA0209BBEBA1
:1017D000175F00D0761C2088000502D57B4878442E
:1017E00002E07A487844193808AA302302F80A300F
:1017F000037C0AF10101002E0AF1020A53546A46E1
:1018000002DC4FF0300101E04FF031014FF00108F0
:101810008DF8001002D0A6F2FF3603E059EA470126
:1018200000D06B4E002D02DC2178090704D54FF063
:1018300002082E218DF80110C44600210BE0C7F3E9
:1018400003433F01C35C491C6D1E02F808300529A3
:1018500008F1010801DA002DF1DC00210CE000EBB9
:101860001973491C1B786D1E082902F808304FEACD
:10187000091908F1010801DA002DF0DC21688B0656
:1018800002D516E0A8F10108E04505DD02EB0803EA
:1018900013F8013C302BF5D0B8F1000F09DD02EB55
:1018A000080313F8013C2E2B03D1090701D4A8F13A
:1018B0000108002D05DD3E2102F808106D1E08F11B
:1018C0000108407C002E02F8080008F1010804DA43
:1018D0002D20764202F8080002E02B2002F80800D2
:1018E0000A214FF47A70864208F101080BDB96FB5F
:1018F000F0F3303302F8083096FBF0F308F10108FA
:1019000000FB136601E0642E0CDB642096FBF0F311
:10191000303302F8083096FBF0F308F1010800FBC1
:10192000136601E00A2E06DB96FBF1F0303002F878
:10193000080008F1010896FBF1F001FB106030305F
:1019400002F80800A16908F1010808EB050202EBA2
:101950000A00081AA0612078C00602D42046FEF7CB
:1019600089FE216A08AE01EB0A00206204E0D4E996
:10197000012116F8010B9047BAF1010AF7D220783D
:10198000C00602D52046FEF775FE6E4609E016F841
:10199000010B3E280FD0D4E901219047206A401C5A
:1019A0002062B8F10108F2D22046FEF779FE09B0B4
:1019B0000320BDE8F08F206A2844206203E0D4E9C8
:1019C0000121302090476D1EEBD3F8E7C13A0400A7
:1019D00002FCFFFF01694A1C02610878704700B5EC
:1019E0008FB0CDE901310021059105497944CDE958
:1019F000031011466846FEF7BBFF0FB000BD0000A4
:101A0000E5FFFFFF0A6802F8010B0A607047D1E9A1
:101A100000239A4202D2531C0B601070704710B51D
:101A2000436913B1AFF3008001E0FEF75CFE0120D3
:101A300010BD127800F124010A7000224A700122C0
:101A4000EDE711684FF0FF32E9E710B5436913B1D4
:101A5000AFF3008001E0FEF7ABFE012010BD12885D
:101A600000F1240182840022C2840122EDE7116882
:101A70004FF0FF32E9E700002DE9F0418046D21D2A
:101A800022F007020025D2E90002F52915A614D09C
:101A9000011E72F1000106DA0023D0EB030063EBB4
:101AA000020211A608E0D8F800108B0701D50FA696
:101AB00002E0490701D50EA601251146002408F1D0
:101AC000240704E000F036F930323A55641C50EA3D
:101AD0000102F7D12B46324621464046BDE8F0418F
:101AE000FFF77DBB000000002D0000002B00000070
:101AF000200000003A2800D2303820F02002412A8D
:101B000001D3A2F13700884201D34FF0FF30704774
:101B1000026811441378016018467047D160054986
:101B200079445161044979441162002111611146DF
:101B300000F0B6B9EDFFFFFF95020000426842B128
:101B4000016811F8013B23B1521EC0E9001218468A
:101B500070470121C160881E704742685AB1C3684E
:101B6000016843B983688B4205D0491E521CC0E905
:101B70000012002070474FF0FF3070472DE9F0470A
:101B800091460F4680460446002614F8015B2DB1AD
:101B9000FEF734FC0068405DC007F6D12B2D02D063
:101BA0002D2D18D0641E4A463946204600F032FBDF
:101BB00027B13968A14201D1C7F800804FF0020473
:101BC00071050BD54042002803DDFFF7ABFA046036
:101BD000A007BDE8F08746F48066E4E70028F8DA5D
:101BE000FFF7A0FA04606FF00040F2E770B5164608
:101BF0000C460546FEF702FC036893F80101012834
:101C000006D0FF2C0FD8185D68B101202C7070BD74
:101C1000D3F807013246214603F20713034428464E
:101C2000BDE8704018474FF0FF3070BD2DE9F0411E
:101C30000646FFF773FA8046454613E016B1E068A2
:101C4000B0420ED120682860D4E90101D8F80070B4
:101C500088472046FEF709FCD8F80000B842EBD1CF
:101C600000E025462C68002CE8D1BDE8F08110B5D5
:101C700000F0AAFBBDE8104000F099BB431A28BF52
:101C80009A427FF63DA9104410F0030F11441EBF85
:101C900011F8013D521E00F8013D10F0030F7FF4D2
:101CA000F6AF103AC0F00A8010B531E91850103A7A
:101CB00020E91850BFF4F9AFBDE81040530724BF26
:101CC00031E9081020E9081044BF51F8043D40F8FC
:101CD000043D12F0030F08BF7047D20728BF31F848
:101CE000023D48BF11F8012C28BF20F8023D48BF33
:101CF00000F8012C7047000000487047189E05202E
:101D0000034640688C46002818BF88423CBF034603
:101D10004068F8D318681844884207D00CF10300D3
:101D200020F00700001D411A521A0146081D0A60E2
:101D3000FEF79BBB30B5B0F10A024FEA900E71F18D
:101D400000034EEA817EB0EB0E0061EB91014FEA99
:101D5000101E4EEA017E10EB0E0041EB11114FEA0E
:101D6000102E4EEA016E10EB0E0041EB11214FEAEE
:101D7000104E4EEA014E10EB0E0041EB114140189F
:101D800041F100014FEAD00040EA41704FEAD10131
:101D900010EB80054FEA810444EA907444EB01049F
:101DA0006D1944EB0404521BA3414FF0000348BFDC
:101DB0000A3200D530BD401C41F1000130BD10B5E4
:101DC0000446FEF71BFB0068005D00F0010010BD3B
:101DD0000FB4014610B504AA039800F073FB10BCC1
:101DE0005DF814FB2DE9F0411F4604460326016807
:101DF000072A01F4006004DB08B116A505E016A56A
:101E000003E008B115A500E015A521F01000206041
:101E1000A069C01EA0610FB1401EA0612046FEF760
:101E200029FC4FB1D4E9012138469047206A401C73
:101E30002062C01C206206E0206AFAE7D4E9012192
:101E400015F8010B9047761EF8D22046FEF728FCC5
:101E5000BDE8F0814E414E006E616E00494E460075
:101E6000696E66000FB400B58DB010A9099000919D
:101E70000B904FF0FF300A9000200C9006487844F9
:101E80000690064878446A4607900F9909A8FFF71C
:101E900045FE0DB05DF814FBBBFCFFFFD3FCFFFF5C
:101EA0002DE9F34F4FF0000A0C4656468DB0012045
:101EB0000C9001F10C000B9062690B980121904786
:101EC000051E2DD0252D2CD0216A8847C0B162690E
:101ED0000B9801219047216A88470028F7D1626951
:101EE000411E0B98904700E0761CA1690D98884729
:101EF000216A88470028F7D1E1690D988847DBE718
:101F0000A1690D988847A842074601D1761CD3E7FE
:101F1000E1690D9888477F1C02D1BAF1000F6FD09C
:101F20006CE162690B9800273D46394690472A28A4
:101F300004D162690B98012190470125DFF8D08216
:101F400062690B9801219047A0F130010A290AD259
:101F50004745E5DC07EB870100EB4107303FDFD465
:101F600045F01005ECE7E90601D46FF000476C2856
:101F70000AD04C2814D0682815D06A280DD07428AF
:101F80001CD07A281AD01DE062690B980121904775
:101F90006C2802D045F0040514E045F002050DE080
:101FA00045F020050AE062690B98012190476828F6
:101FB00002D045F0080505E045F4006562690B981C
:101FC00001219047C4E9015765283DD019DC582804
:101FD0007AD00CDC452837D004DC252826D04128CF
:101FE0009ED131E046282FD0472899D12CE05B289C
:101FF00077D0612828D063287CD0642823D15AE088
:10200000F7E06F2848D008DC66281DD067281BD071
:10201000692821D06E2816D127E0702845D0732872
:1020200068D0752847D078280DD14DE0A1690D986A
:102030008847252805463FF469AFE1690D98884730
:102040006D1C3FF46AAFD9E00D9923466A466FF0E4
:1020500001002FF019FCC6E045F0400023464FF088
:1020600000026060A80736D43EE0E8077FF447AF7F
:102070002068011D21600068290501D506701BE755
:10208000290701D5068017E7A90703D5F117C0E98D
:10209000006111E706600FE745F0400023464FF06E
:1020A00008026060A80716D41EE040F60E0125EA7B
:1020B0000100606016E045F0400023464FF00A0240
:1020C0006060A80707D40FE045F040006060A807F3
:1020D00008D5234610220D996FF0010000F004FA94
:1020E00081E007E0102223460D996FF00100FEF712
:1020F00003FD78E04FF0000963284F46C8464B4681
:10210000CB4602D05B2807D039E02079C00601D445
:102110000120A060012732E06269D4F80CB00B986E
:10212000012190475E2807D14FF0010949466269B5
:10213000D4F80CB00B989047216939B900210A46B0
:1021400003AB43F82120491C0829FADBD8B32169E5
:1021500049B308F1010862690B98012190475D2895
:10216000F4D1B9F1000F09D0002003A951F82020C3
:10217000D24341F82020401C0828F7DB03AB20693C
:10218000002820794FEA40701ED05B462246CDF8E9
:102190000080CDE901970D9900286FF0010020DA49
:1021A00000F038FE1FE0C11703AA00EBD1614B110C
:1021B00021F01F0102EB8302411A136801208840BD
:1021C00003431360C7E719E00D99224600286FF01A
:1021D0000100009702DA00F01FFD04E000F02FFA82
:1021E00001E000F0A3FD00280ADA401C06D10C989B
:1021F00020B14FF0FF300FB0BDE8F08F5046FAE746
:10220000E90701D10AF1010A064400200C9053E6C7
:10221000CCCCCC0C2DE9F05F824615468B460027CE
:102220000AF10104B9460078302801D09DB113E0CD
:1022300014F8010B0127782803D0582801D045B1A4
:102240000AE00DB1102D07D1002714F8010B10255D
:1022500002E0082500E00A250026B0460EE005FB56
:10226000080005FB06F101271FFA80F801EB104674
:10227000B6F5803F00D3B94614F8010B2946FFF7A5
:1022800039FC0028EBDABBF1000F05D00FB1641E5A
:1022900000E05446CBF80040B9F1000F06D0FEF73D
:1022A00041FF02210160C81EBDE8F09F48EA0640D8
:1022B000FAE700002DE9F047814616468AB0354816
:1022C00078440DC88DE80D0032487844801C03AC7A
:1022D0000DC884E80D0041F69B300844372190FB7F
:1022E000F1F290FBF1F5A5F1800501FB12041B3C16
:1022F00002D56442012000E00020DFF898A080466B
:102300000027FA44AAF1BE0A0EE0E0070AD03246DE
:10231000684607EB470101230AEB810102F038F818
:102320008DE8070064107F1C002CEED1194F7F440C
:10233000AE3F19E0E80715D007EB04100DF1180ABD
:1023400090E80E008AE80E00C068F04201D19819AA
:1023500008903246012306A903A802F019F803AB3E
:1023600083E807006D10641C002DE3D14FF00103DA
:1023700032466946B8F1000F03A802D001F0DEFF33
:1023800001E002F005F8C9E90001C9F808200AB027
:10239000BDE8F0877832040010B5002000F05FFE41
:1023A000AFF30080BDE81040012019F0C2BD002845
:1023B00001D019F0BEBD704710B500F057FEBDE862
:1023C0001040FFF7F4BF000010B5002102A000F09C
:1023D0002DFE012010BD00005349475056464E3A8D
:1023E0002050757265207669727475616C20666E16
:1023F0002063616C6C65640010B515F0C7FFBDE823
:10240000104015F010BF10B500F00DF8016919B1BA
:1024100000220261884701E080688047FFF7BCFF27
:1024200010B5FFF7B9FF70B500F048F8046805462D
:10243000A4B92020FDF7EAFF040011D009490020CB
:102440002C60C4E900010849A1602073206160612B
:102450000649A06109B100F031FEE061204670BD7F
:10246000FFF79AFF00000000212400080000000090
:102470007546FFF741FCAE4605006946534620F01D
:102480000700854618B020B5FDF7A4FFBDE8204041
:102490004FF000064FF000074FF000084FF0000B20
:1024A00021F00701AC46ACE8C009ACE8C009ACE8D3
:1024B000C009ACE8C0098D4670470000004870476D
:1024C000549E0520074B70B50D467B44FFF787FAF5
:1024D0000446284600F01FFE10B14FF0FF3070BDDB
:1024E000204670BDFBF601002DE9FF4F1C469146CA
:1024F0004FF0FF3581B000218A468846D4E9016754
:10250000A16902986D1C8847216A83468847002884
:10251000F6D1BBF1FF3F0CD0002F26F4C0661ADDC8
:10252000700615D5BBF12B0F0AD0BBF12D0F0FD1C3
:1025300004E04FF0FF3005B0BDE8F08F46F4806650
:10254000A16902986D1C88477F1E8346002F02DD1B
:10255000BBF1300F03D0B9F1000F2AD025E0A169FB
:102560006D1C02987F1E46F400768847002F834634
:1025700005DDBBF1780F06D0BBF1580F03D0B9F1E0
:10258000000F10D011E0B9F1000F02D0B9F1100F17
:102590000BD1A1696D1C02987F1E26F40076884736
:1025A0008346102000E0082081464FEAE970009041
:1025B00017E00A20F8E74346AAFB0928DDF800C027
:1025C0007F1E03FB098046F4007605F101050AFB36
:1025D0000C0112EB0B0A029841EBEB78A1698847DA
:1025E0008346002F06DD49465846FFF783FA5FEA27
:1025F000000BE0D5E16902988847B00502D46FF07E
:10260000010098E7F00718D1700610D55146700503
:1026100005D50023D1EB030163EB080200E042463D
:102620002068031D23600068C0E9001205E02068EF
:10263000011D21600068C0E900A828467BE72DE95C
:10264000FF5F4FF000089946144646469169D2E96B
:1026500001A7DDF838B001988847054659EA0B0014
:1026600005D009E0A1690198761C88470546216AD2
:10267000284688470028F5D1681C03D05FEACA7055
:1026800005D015E04FF0FF3004B0BDE8F09F2068A2
:10269000011D2160D0F800800AE05FEACA7001D114
:1026A00008F8015BA169761C01987F1E88470546E2
:1026B000002F1ADD681C18D0B9F1000F0DD0E817F3
:1026C00005EBD060421120F01F0059F822102A1AA1
:1026D000012090400142E0D107E0BBF1000FDCD1C6
:1026E0002846216A88470028D7D0E16901988847A1
:1026F000BBF1000F07D1002E05DD5FEACA7002D1E1
:10270000002188F80010A068B84203DDBBF1000F7B
:1027100003D017B16FF00100B6E73046B4E7000010
:102720002DE9FF4F06468BB00878FF2806D0491CDC
:102730002D2805D000244FF0000908E000200CE00F
:102740000124F8E709EB8903491C00EB43090878E9
:10275000FF28F7D114B1C9F1000081461078002597
:102760002C46AA4629462D2801D02B2804D1521CDC
:102770002D2813D0002082468B461078FF280FD0DA
:102780004FF0000C0A21521CA5FB017804FB0181CB
:1027900005FB0C11C5194BEB0104EEE70120EAE73C
:1027A000002108464FF00000BAF1000F02D000EB04
:1027B00080004008C0F38157012F01DD4FF0FF3743
:1027C0000E9955EA040009EB01080BD04FF00209FD
:1027D00018F5FA7F16DA4FEACA70002F706008DD2C
:1027E000012007E04FEACA70C6E900B00FB0BDE8AB
:1027F000F08F00203060FEF795FCC0F800901821A3
:10280000084616E0B8F5FA7F18DD002F02DAF7481F
:10281000784401E0F6487844D0E90010C6E9001099
:1028200040EACA707060FEF77DFCC0F80090142189
:1028300008460FB0BDE8F04F2EF0BFBF002108469C
:102840004FF00000B8F10001099002DAC7F1000270
:1028500000E03A4601DAC8F1000106A8FFF72AFDB8
:1028600006AB93E8070003AB83E8070044F23E00A1
:102870005BEA04010090584604D144F21E012C4644
:102880005D460091210C0904014306D100992404FE
:1028900044EA15442D041039009104F07F410143AE
:1028A00006D10099240244EA15642D0208390091EA
:1028B00004F07041014306D10099240144EA1574E3
:1028C0002D01091F009104F04041014306D10099F8
:1028D000A40044EA9574AD00891E009104F0004103
:1028E000084304D100986D196441401E00904FF0D8
:1028F00001033A466846B8F1000FCDE9014503A946
:1029000002DD01F05AFD01E001F02DFDBAF1000FEA
:1029100004460D4601D084F00044002108464FF0E3
:102920000000099940F2FF77484010F00C0F07D1E2
:1029300024F00040284303D0C4F30A50B84212D117
:10294000FEF7F0FBC0F80090C4F30A50B8420AD179
:10295000A8487844D0E90010C6E9001004F000410E
:102960000843706042E7C6E900543FE72DE9FF4F96
:102970001F464FF0000A4FF0FF38454691B0D7E9A7
:102980000146CDF83CA0FEF7C5FBC0680168405C7D
:102990001090B96912986D1C8847396A814688473A
:1029A0000028F6D1B9F1FF3F0AD0002E24F4D064FC
:1029B00011DDB9F12B0F08D0B9F12D0F0BD102E0C9
:1029C000404615B013E744F48064B96912986D1C51
:1029D0008847761E8146600504A901D52D2000E0B8
:1029E0002B20002E01F1010B0DF130088DF81000A5
:1029F0003FDDB9F1690F08D0B9F1490F05D0B9F140
:102A00006E0F02D0B9F14E0F1CD13B4601A80095C4
:102A100080E85002DDE912126FF002002EF038FF5C
:102A2000C11CCED10EE0B96912986D1C8847814651
:102A30001398761E44F4007405600F98401C002E15
:102A40000F9016DDB9F1300FEDD0B9F1780F02D04B
:102A5000B9F1580F0DD10F9801280AD13B46CDE9A5
:102A60000054DDE91212001F02962EF00FFFC11C68
:102A7000A7D1109989453ED144F0800406E013990E
:102A8000681CAAF1010A44F400740860B9696D1C5D
:102A90001298761E884730288146F0D02BE0109996
:102AA000894505D1200603D4761E44F0800418E041
:102AB000484617F01FFE08B3761E0DF123018B4523
:102AC00044F4007408D2A9F130000BF8010B200681
:102AD00007D5AAF1010003E0200602D40AF10100A3
:102AE0008246A00502D51399681C0860B96912983E
:102AF0006D1C88478146002ED1DC53E0002E51DD4D
:102B0000B9F1650F02D0B9F1450F4BD1A00549D5F8
:102B1000B9696D1C1298761E24F440748847002E03
:102B200081460CDD2B2804D0B9F12D0F07D144F4D8
:102B30008074B96912986D1C8847761E8146E0053D
:102B400001D52D2100E02B2108F8011BCDF80080D4
:102B500021E0761E0DF13901884544F400740CD251
:102B6000A9F1300010F0FF0088F8000002D10099B0
:102B7000884509D908F1010806E0E00501D51E489D
:102B800001E042F20F708246B96912986D1C8847C5
:102B9000814613980560002E04DD484617F0AAFD13
:102BA0000028D6D1F96912988847FF2053468BF840
:102BB000000088F8000000200A900B9004AA0CA9DD
:102BC0000AA8FFF7ADFDA00502D46FF00100F8E6FA
:102BD00014F0240F12D0E0071CD13868DDE90A1286
:102BE000031D3B600068C0E9001213E0BC3D040017
:102BF000AE3D0400723C0400F1D8FFFF0AA968460C
:102C000017F09AFBE00705D13868009A011D39607A
:102C1000006802602846D4E62DE9FF4F4FF0000817
:102C20009A461446C146464683B0D2E901B7CDF86C
:102C30000080CDF804809169049888471099054672
:102C40005AEA010005D009E0A1690498761C88477A
:102C50000546216A284688470028F5D1681C03D01C
:102C60005FEACB7005D02AE04FF0FF3007B0BDE837
:102C7000F08F2068011D2160D0F800801FE002A8BD
:102C80006A46E9B200F0E6FB411C07D0801C09D07F
:102C90004FF000095FEACB7007D00AE0E1690498C1
:102CA00088473EE04FF0010904E0BDF8081028F81D
:102CB000021B7F1EA1690498761C88470546002FD9
:102CC0001ADD681C18D0BAF1000F0DD0E81705EB1B
:102CD000D060421120F01F005AF822102A1A012059
:102CE00090400142CBD107E010980028C7D1284678
:102CF000216A88470028C2D0E16904988847B9F161
:102D0000000F0ED1109830B9002E04DD5FEACB70B1
:102D100001D1A8F80000A068B84202DD109818B1EF
:102D200017B16FF00100A1E730469FE72DE9FF4F93
:102D30004FF000089B461446454683B0D2E9019601
:102D4000CDF80080CDF804809169DDF848A00498A2
:102D5000884707465BEA0A0005D009E0A1690498A4
:102D60006D1C88470746216A384688470028F5D1F8
:102D7000781C03D05FEAC97005D01BE04FF0FF302C
:102D800007B0BDE8F08F2068011D2160D0F80080F9
:102D900010E05FEAC97007D16A464046B9B2FEF753
:102DA00025FF411C31D08044A1696D1C0498761E1A
:102DB00088470746002E14DD781C12D0BBF10000B6
:102DC00007D03B46DDE9101200F096F90028E0D16B
:102DD00007E0BAF1000FDCD13846216A88470028A5
:102DE000D7D0E16904988847BAF1000F06D1002DC9
:102DF00004DD5FEAC97001D188F80000A068B04224
:102E000003DDBAF1000F03D016B16FF00100B7E790
:102E10002846B5E72DE9FF5F9B46144600273D464F
:102E20009169D2E90196DDF840A001988847804673
:102E30005BEA0A0005D009E0A16901986D1C88478A
:102E40008046216A404688470028F5D1B8F1FF3F07
:102E500003D05FEAC97005D014E04FF0FF3004B032
:102E6000BDE8F09F2068011D216007680AE05FEA65
:102E7000C97001D127F8028BA1696D1C0198761EDB
:102E800088478046002E15DDB8F1FF3F12D0BBF118
:102E9000000007D04346DDE90E1200F02DF90028AE
:102EA000E5D107E0BAF1000FE1D14046216A884739
:102EB0000028DCD0E16901988847BAF1000F05D1FC
:102EC000002D03DD5FEAC97000D13880A068B042F0
:102ED00003DDBAF1000F03D016B16FF00100BEE7B9
:102EE0002846BCE710B542485421FEF765F8414832
:102EF0005421FEF761F840485421FEF75DF83F4940
:102F00003B483C4A3F4B08603D490A603A491960DA
:102F1000531C0365481C1065012008653B48344A72
:102F200039A1784400F01EF920B9384878440A38AD
:102F300000F0C6FA37482F4A35A1784400F012F95C
:102F400020B9344878440A3800F0BAFA32482A4A9C
:102F50002FA1784400F006F920B92F4878440A38A8
:102F600000F0AEFA40232248DC000021224600F0A7
:102F7000D6F820B125487844543800F0A1FA1D480D
:102F800022464023002100F0CAF820B121487844AD
:102F9000543800F095FA184822461023002100F01A
:102FA000BEF8002806D01C487844BDE810405638CA
:102FB00000F086BA10BD104870B5006D20F0010415
:102FC0000B4800F045F90B4800F042F90A4800F0C0
:102FD0003FF909E0206D20F00105204600F038F9A6
:102FE0002046FDF742FA2C46002CF3D170BD0000BC
:102FF000789E0520CC9E0520209F05208002002081
:10300000840200208802002072000000AAE9030068
:10301000770000009AE903008BE903000A460146A5
:10302000014800F088B90000749F052070B505467E
:103030000C460A2000E06D1C18F0F4FF35B128782A
:103040000028F8D102E0641C18F0ECFF14B12078DD
:103050000028F8D1BDE870400A2018F0E3BF10B591
:1030600000F016FABDE81040FFF7A1B910B501282D
:1030700005D0002103A0FFF7D9FF012010BD09A151
:10308000F8E7000053494752544D454D3A204F75DB
:1030900074206F662068656170206D656D6F727950
:1030A000000000003A2048656170206D656D6F7208
:1030B0007920636F727275707465640010B5882032
:1030C000FDF7A4F9002801D00021017010BD80296E
:1030D00002D808B1017809B100207047012100F839
:1030E000081B704718B100F10802914201D000207E
:1030F000704700210170704710B508E030F8024BAE
:103100009C4204D10AB1002010BD012010BD491E0F
:10311000F4D2104610BD007B00F08000704770B5FF
:10312000C468A50713D0650211D4B2F5807F09D019
:10313000B2F5007F06D0B2F5806F08D1012300F10F
:10314000240106E05D1E6FF07F46B54201D30120E9
:1031500070BD0161C361416024F470611143C160BD
:10316000002070BD2DE9F0410C460746164610467A
:1031700000F06EF82078611C61280AD0722802D015
:1031800077283CD102E00125002405E00225042433
:1031900002E0082448F2020511F8010B2B2806D0A2
:1031A000622809D011F8010C74280AD00BE045F010
:1031B000030544F00204EFE745F0040544F0010480
:1031C000EAE744F010043846214618F0BBFE411CE3
:1031D00015D00021316171604FF40071F560F1612B
:1031E0007061200704D530460222002100F098FCCF
:1031F000306D40F0010030653046BDE8F0810020C0
:10320000FBE72DE9F0410D460646104C206DC10745
:1032100004D0410804D020F00104F7E722460EE074
:103220005420FDF7F3F807000ED0206D47F00101A0
:103230000843542120653846FDF7BEFE3A4629462C
:103240003046BDE8F0418DE70020D6E7789E0520A6
:103250002DE9F04704464FF000094FF0FF37C568ED
:10326000D4E90486A80707D0204600F009FD3046BF
:1032700018F04EFE002802DA3846BDE8F08728052F
:1032800002D54046FDF7F1F84C212046FDF794FEAB
:10329000206D20F0010020654846EEE770B5064637
:1032A000484231EA00000FD02A20741C00253070FB
:1032B000FDF730FF0346002253F82500010F0001FF
:1032C00009292BD957312AE0042913D004DC01291C
:1032D00008D0022904D109E008290FD0102911D003
:1032E000002070BDFDF716FF00680EE0FDF712FF2D
:1032F00040680AE0FDF70EFF806806E0FDF70AFF70
:10330000C06802E0FDF706FF006928B120F0030065
:1033100050F8041C084470BD4CA070BD3031521CE4
:10332000082A04F8011BC9D36D1C052DC3DB00203E
:103330002070304670BD09B14B0901D000207047A4
:1033400022B113782A2B02D000F034B8A6E7AFF3ED
:1033500000802DE9F0410F468046541C00250026D0
:10336000314614F8010BA0F13002092A03D9A0F16B
:103370006103052B16D8392801D8104600E05738CC
:10338000491C082940EA0616EBD30120A840384220
:1033900003D0FDF7BFFE40F825606D1C052DDEDB78
:1033A000207810B10020BDE8F08139464046BDE8E4
:1033B000F04173E72DE9F0410C46064615468807B3
:1033C0000AD51146224878442BF088F9071EEAD026
:1033D000FDF7A0FE7F1C4760E0070AD029461C4885
:1033E00078441A38AFF30080071EDCD0FDF792FE58
:1033F000076060070AD52946154878443438AFF38A
:103400000080071ECFD0FDF785FE876020070AD514
:1034100029460F4878444E382BF076F9071EC2D063
:10342000FDF778FEC760E0060AD5294608487844CB
:103430006838AFF30080051EB5D0FDF76BFE05615F
:1034400021463046BDE8F04128E7ACE743000000E4
:103450004633040070B516460C460546FCF7CEFF11
:10346000036893F80101012804D0185D68B10120B8
:103470002C8070BDD3F803013246214603F20313BA
:1034800003442846BDE8704018474FF0FF3070BD38
:1034900010B5002102A0FFF7C9FD012010BD0000FA
:1034A000534947414252543A2041626E6F726D61F6
:1034B0006C207465726D696E6174696F6E000000D6
:1034C00010B500F021FCBDE81040FEF770BF00DE33
:1034D0002DE9F04117460E46054633B107FB03546C
:1034E000E41B2046B047A542FAD1A5F10800BDE88B
:1034F000F08100002DE9FF4F1F464FF03C0987B0D7
:103500004FF00042DDE9141001F10108DDF858A088
:1035100002EA405003900020059083460546044689
:103520000490B969461E08988847AAF1010A0290DA
:10353000BAF1000F3BDD02982E2815D01021FEF7BE
:10354000D9FA00282EDB4FF0010B0599014317D063
:10355000B9F1000F0BDB4A46C11700F0EFFB054342
:103560000C43A9F1040905E0012004900BE008B127
:1035700045F0010501200590049820B9361D02E0B0
:10358000049800B1361FB969089808F10108884706
:10359000BBF1000FAAF1010A0290C9D00999C1F844
:1035A0000080C5E70298702808D0502806D0F96935
:1035B00008988847BBF1000F14D04FE0002002901C
:1035C0000120BBF1000F049009D0B969089808F1F7
:1035D00001088847AAF10109B9F1000F07DCF96970
:1035E000089888476FF001000BB0BDE8F08F2B28DA
:1035F00004D02D280CD14FF0FF300490B969089801
:1036000008F101088847A9F10109B9F1000FE6DDC9
:10361000411CE4D00A21FEF76DFA0028DFDB029995
:1036200008F1010801EB810100EB41000290B9694A
:10363000089888470A21FEF75DFA099AA9F101095D
:10364000B9F1000FC2F8008001DD0028E7DAF9695E
:10365000089888470499029800FB016655EA04001F
:1036600004D004F04041090002D006E0039898E03D
:10367000A40044EA9574AD00B61E04F000410800B1
:1036800002D16D196441761E159810F0240F03D0F5
:103690004FF00B095C4803E04FF028096FF07D0004
:1036A0008246564507DAAAEB06018944B9F1410F73
:1036B00001DD4FF0410901200021A9F1010200F0D4
:1036C0003DFB024628400B462140084301D0012122
:1036D00000E00021501E029143F1FF3128402140BB
:1036E000084301D0012000E000200299834651EAFE
:1036F0000B014FD0002108464FF00000039900F461
:10370000400039B100EB80004FF4400100EBD07075
:1037100001EA60008015012802DD4FF0FF3000E073
:1037200013D0401C36D0029860B3BBF1000F0CD10F
:103730004A460120002100F001FB284021400843B7
:1037400001D0012000E00020E0B101204A46002124
:1037500000F0F4FA034640190A4661412D1A8C41E3
:1037600011D3B9F1400F09DD159810F0240F02D0E4
:10377000AAF1340603E0AAF1170600E0761C002542
:103780004FF0004406E05B1E42F1FF3220EA0305E1
:1037900021EA0204CAF10100B04206DA1B4903988B
:1037A00008430190002000900EE0039AC4F3D32157
:1037B000E80A0A43164940EA44500A433146CDE933
:1037C0000002684616F08CFF159810F0240F0BD0FD
:1037D0001598C00715D13868DDE90012031D3B605C
:1037E0000068C0E900120CE002A8694616F0A4FDCA
:1037F0001598C00705D13868029A011D3960006824
:1038000002604046F0E6000002FCFFFF0000F07F8F
:103810000000F03F2DE9FF4F92461D4685B04FF066
:103820000041DDE9124BDDE914727F1E01EA4B50C5
:10383000414940F0FF4940EA0108002122F0200000
:103840004928049102D04E2828D04CE03BA0012604
:1038500007C88DE80700A9690698641C88477F1E81
:10386000014606D41DF8060018B121F0200181425E
:103870000BD0E96906988847032E34D0082E32D041
:103880006FF0010009B0BDE8F08F761C032E01D067
:10389000082EE0D1601CCAF80000DCE7A969069890
:1038A000641C88477F1E2AD420F02000412826D19E
:1038B000A9690698641C88477F1E20D420F0200048
:1038C0004E281CD1A9690698641C88477F1E48F4BD
:1038D000002849F48009CAF8004001D4282806D0FD
:1038E000E969069888475FEACB7012D022E0A9699F
:1038F0000698641C88477F1E01D4002803DAE96912
:1039000006988847BCE72928F1D1641CCAF8004012
:10391000E9E71BF0240F07D028680499031D2B60EA
:103920000068C0E9001805E02868021D2A600068E8
:10393000C0F800902046A5E70000F07F494E4649B8
:103940004E495459000000002DE9F04705460C4649
:10395000C86820F4201040F48000C860800602D5BA
:10396000084600F0B0F9E06841F282014FF0FF39FB
:103970000140022903D0204600F04EF9B5E000F4E2
:103980002041B1F5004F0FD1C00306D56168E06A50
:10399000884200D80846606006E02069E062606006
:1039A000606918F0C7FAA061A0680022EEB2002892
:1039B0000DDAE1688B050AD4C043A06041F4903071
:1039C0002260E0606068411C61600670A5E0E0680C
:1039D0009046226040F40050E060206968BB606956
:1039E00018F0AAFA012704F12405A0B1A08910F467
:1039F000407F08D0E069FCF709FD206118B1E0685C
:103A000040F4006016E0E7612561E06820F4407052
:103A100040F480600EE0E069FCF7F8FC00282061CB
:103A2000F1D0E06840F4006010F4407FE06002D123
:103A300040F48070E06020696060E06825696FF0A4
:103A4000010AC1051FD56168E06A884200D80846AE
:103A5000411B04D02246284600F0E8F8F0BBE0689D
:103A6000010203D5E562C4E9015854E0691CE16232
:103A70006160E16940F48030491EC4E902103046BB
:103A80002E70BDE8F087010202D500F480320AE012
:103A90006068411C61600670E0680A2E40F4803066
:103AA000E06006D00022E16A6068814203D90B46DB
:103AB00002E00122F7E70346A7895B1B7F0503D4D9
:103AC000E7699F4200DDE2B1814200D80146E5622C
:103AD0000F1AC4E90158002B09DD00E005E0224679
:103AE0001946284600F0A2F808B14846C9E747B190
:103AF000A069E5626560C01BA061E06840F010004D
:103B0000E060E068000208D56168A069E562491BD1
:103B100008446560A0615046B3E73046B1E7000055
:103B20002DE9F041044616460D464769007B8007A3
:103B30002ED0384618F000FA50BB3EB3012E02D00A
:103B4000022E25D104E0204600F00BF905441DE0CB
:103B5000384618F0EFF9E168002841F01001E16003
:103B600005DA204600F058F80120BDE8F081C903CD
:103B70000BD56268E16A914200D81146A2691144EE
:103B80002269891A814200DD08460544002D01DAC8
:103B90000220EAE7E16A6068E268814206D29103A6
:103BA000E06203D522F4003141F01002A66900273B
:103BB000AE4213DCE16A814201D90B4600E00346C4
:103BC00003EB060C2369ACEB030CAC4506DD81422C
:103BD00001D98C4600E084469C4505D1A76027604A
:103BE00042F02000A5620DE0AD1BE669AE1B8142EC
:103BF000A66000D90846C01A281A206058196060CB
:103C000022F0200003490840E060002084F848705A
:103C1000ABE70000BFCFD7FFC16821F4001141F02E
:103C20008001C16000218160016070472DE9F0478B
:103C3000814614460E464FF0FF383248D568576922
:103C4000054209D03846A16918F0C8F9002811DBEF
:103C50002C48C0430540E5602B463246494638466D
:103C600018F0C6F9A16920F00042B21A11440028E8
:103C7000A16103D02046FFF7CFFF4046BDE8F087A3
:103C800070B504460569C06A6168884200D8084674
:103C9000E16821F42011E160C90312D5A84208D0DF
:103CA0002246411B2846FFF7C1FF10B14FF0FF30FD
:103CB00070BD0020E562C4E90150E06820F4803066
:103CC000E060002070BD10B50446C06820F0200000
:103CD000E060A16AA06988420DD02046FFF7D0FFBE
:103CE000E06820F4405040F01000E060A06AA0615D
:103CF0002069E062606044F24001E0688843E0606F
:103D000010BD00001000020010B5014602A0FFF730
:103D10008DF9012010BD00005349475254524544CB
:103D20003A2052656469726563743A2063616E2754
:103D300074206F70656E3A2000000000B2F120031D
:103D40000AD5C2F1200301FA02F120FA03F300FAC6
:103D500002F041EA0301704700FA03F14FF000005E
:103D6000704710B50146C268900703D0900607D58A
:103D7000886A0AE0FDF7D6F901210160881E10BDAE
:103D80008B69486818440B69C01A91F848301BB118
:103D900091F84910401A10BD1103FCD50028FADD36
:103DA000401E10BD2DE9F04116461F460C46851BEE
:103DB00002E02846B847AD1B641EFAD2BDE8F08188
:103DC0005FEA400C08BF91F0000F4FEA8C234FEAE6
:103DD000C12243EA51514FEA1C5018BF00F5F04090
:103DE0004FEA300018BF41F000415FEA6C5C00F020
:103DF0002980BCF1FF3F08BF40F080407047130CA2
:103E000006BF12044FF0100C4FF0000C130E04BF4D
:103E100012020CF1080C130F04BF12010CF1040C78
:103E2000930F04BF92000CF1020CD30F04BF520099
:103E30000CF1010C11464FF00002A0F11F00A0EBA5
:103E40000C00704711F0004F08BF704731F000417F
:103E50003FF4D5AF0B0C06BF09044FF0100C4FF028
:103E6000000C0B0E04BF09020CF1080C0B0F04BF71
:103E700009010CF1040C8B0F04BF89000CF1020C3A
:103E8000CB0F04BF49000CF1010CCCF12003A0EBD7
:103E90000C0022FA03F302FA0CF241EA030100F1EA
:103EA0000100704720F07F4C80EA030023F07F4739
:103EB000ACEB070303F57C5300F0004003F1FF0374
:103EC0002DE980494FEA154B09B44FEA144325EA1E
:103ED0000B4E24EA03480FF2042606EB1327490889
:103EE0003E785FEA320203FB0667C7F5000707FB6F
:103EF00006F64FEA54374FEAD64606F1020607FBAC
:103F0000066CCCF1005C4FEA1C472CEA074C07FB1F
:103F100006F40CFB06F504EB15464FEA961634BF83
:103F200000204FF000404FEAD13706FB07FC4FEA74
:103F30001C4C0CFB0BF7D21B03FB0CF761EB0701CE
:103F40000CFB0EF7B0EB074072EB17420CFB08F7C7
:103F500034BFA2EB0742B2EB074261EB17414FEAD5
:103F60000C444FEA910706FB07FC4FEA1C4C0CFB84
:103F70000BF7B0EBC74072EB573203FB0CF734BFC3
:103F8000A2EBC742B2EBC74261EB57310CFB0EF715
:103F9000B0EBC70072EB57720CFB08F734BFA2EB13
:103FA000C702B2EBC70261EB5771039F4FEA816111
:103FB00041EA921104EBCC044FEAD1374FEA826216
:103FC00006FB07FC42EA90124FEA80604FEA1C4C65
:103FD0000CFB0BF7D21B03FB0CF761EB07010CFB8F
:103FE0000EF7B0EB074072EB17420CFB08F734BF3B
:103FF000A2EB0742B2EB074261EB17414FEA8C5547
:104000004FEA910704EB9C2406FB07FC4FEA1C4C8B
:104010000CFB0BF7B0EBC74072EB573203FB0CF70E
:1040200034BFA2EBC742B2EBC74261EB57310CFB86
:104030000EF7B0EBC70072EB57720CFB08F734BFFA
:10404000A2EBC702B2EBC70261EB577115EB4C252F
:104050004FEA816141EA92114FEA82624FEAD13719
:1040600042EA901206FB07FC44F100044FEA80602C
:104070004FEA1C4C0CFB0BF7D21B03FB0CF761EB5C
:1040800007010CFB0EF7B0EB074072EB17420CFB7D
:1040900008F734BFA2EB0742B2EB074261EB1741CE
:1040A00015EB1C154FEA813141EA92414FEA823209
:1040B00042EA90424FEA80304FEA0C7644F1000425
:1040C00048EA03434EEA0B484FF0000EB2EB080CEF
:1040D00071EB030724BF624639464EEB0E0E4FF0DC
:1040E000000B0018524149414BEB0B0BB2EB080C93
:1040F00071EB03077BF1000B24BF624639464EEBA0
:104100000E0E4FF0000B0018524149414BEB0B0BC8
:10411000B2EB080C71EB03077BF1000B24BF624686
:1041200039464EEB0E0E51EA020718BF46F0010663
:1041300016EB0E7655F1000254F1000103D5BDE8EF
:104140008901BDE80088BDE88901BDE80048B619CD
:10415000524141EB0101A3F10103704780807F7E52
:104160007D7C7B7A797877767675747372717170ED
:104170006F6E6E6D6C6C6B6A6A696868676666659F
:104180006464636362616160605F5F5E5E5D5D5C2D
:104190005C5B5B5A5A59595858575756565555559E
:1041A0005454535352525251515050504F4F4F4EFE
:1041B0004E4D4D4D4C4C4C4B4B4B4A4A4A4949494C
:1041C000484848474747474646464545454444448E
:1041D00044434343434242424241414146EA064648
:1041E000A3F570534FEA164646EA42564FEAD222EA
:1041F00042EA415210B54FEAD121A3F1010300F088
:104200002FF820F0004000F1020C00F0004701EB15
:1042100000501146BCF5006F40EA070000D210BD07
:10422000BAF1000F0AD01CB503B44FF004004FF0F0
:1042300004014FF000000FBCBDE810404FF000013A
:10424000BBF1010FB9BF04484FF0FF310348002113
:1042500040EA070010BD00BFFFFFEF7F0000F07FC6
:10426000002B9C4630D477002BD01CB54FEA370783
:1042700003B44FF010004FF01001BAF1000F06D058
:10428000BCF1000FDCBF40F0080040F008014FF027
:1042900000000FBCBDE810400BF1010BBBF1010F9A
:1042A00008BF5FEA170722BF12F1010211F10101F5
:1042B0004FF0004143F1000300F0004043EA0000EA
:1042C0007047F9D35708D0E746EA064613F1400F86
:1042D0004FEA16461FDD13F1200FDFBF16430A46D3
:1042E000002120335B42BED0C3F1200746EA0646D8
:1042F00002FA07F74FEA164646EA0706C3F1200717
:1043000022FA03F201FA07F721FA03F14FF0000352
:1043100042EA0702A7E746EA020646EA06464FEAED
:10432000164646EA0106BCBF46EA0646360C4FF082
:1043300000034FF000024FF0000194E72DE9804C9C
:104340009A46934670B491E8380007C831EA400CA9
:1043500048BF34EA430C03D5FFF7A4FDFFF780FF05
:10436000F0BCBDE8008C2DE9804C9A46934670B4B1
:1043700091E8380007C831EA400C48BF34EA430CE2
:1043800003D5FFF78FFDFFF729FFF0BCBDE8008CD8
:104390002DE9804C9A46934670B491E8380007C8DE
:1043A00010F0804F08BF13F0804F03D100F01AF8CF
:1043B000FFF756FFF0BCBDE8008C2DE9804C9A4613
:1043C000934670B491E8380007C810F0804F08BFDA
:1043D00013F0804F03D100F005F8FFF7FFFEF0BCAB
:1043E000BDE8008C20F07F4780EA030023F07F4C7B
:1043F00007EB0C03A3F57C5300F00040A3F1FE0390
:1044000092F0000F00F0B38095F0000F00F077807D
:104410002DE901494FEA11404FEA144621EA0048CC
:1044200000FB06FC24EA064708FB06F607FB08F833
:1044300000FB07F718EB06484CEB164C4FEA124B03
:1044400018EB07484FEA15464CEB174022EA0B4E93
:104450000BFB06FC25EA06470EFB06F607FB0EFEE5
:104460000BFB07F71EEB064E4CEB164C4FF000060D
:104470001EEB074E4CEB174B18EB0B0840F10000FE
:1044800018EB0E0B58EB000840F100008F1A4FF0AC
:1044900000013CBFC943661B14BFB5EB040C0021EF
:1044A0003CBFC943F61B4FEA17444EEA8E0E27EA7B
:1044B00004454FEA1C4704FB07622CEA074C05FB46
:1044C00007F70CFB05F604FB0CFC16EB074642EB6A
:1044D000174216EB0C4642EB1C421BEB060658EB50
:1044E0000202414146EA9E0601D5BDE80189B6199E
:1044F000524141EB0101A3F10103BDE801894FEAFB
:1045000014454FEA114724EA054621EA074C05FB0A
:1045100007F406FB07F70CFB06F105FB0CFC11EB9F
:10452000074144EB17444FEA124711EB0C4144EBAF
:104530001C4422EA074C05FB07F206FB07F70CFBBD
:1045400006F605FB0CFC16EB074642EB174216EB92
:104550000C4642EB1C456A1854F1000148BF7047F5
:10456000B619524141EB0101A3F10103704795F0E7
:10457000000F37D04FEA11424FEA144721EA0246B2
:1045800024EA074C02FB07F106FB07F70CFB06F4D5
:1045900002FB0CFC14EB074441EB17414FEA1547B3
:1045A00014EB0C4441EB1C4125EA074C02FB07F5D8
:1045B00006FB07F70CFB06F602FB0CFC16EB0746A6
:1045C00045EB174516EB0C4645EB1C42121951F111
:1045D000000148BF7047B619524141EB0101A3F1F8
:1045E000010370474FEA14454FEA114724EA054694
:1045F00021EA074C05FB07F106FB07F70CFB06F267
:104600004FF0000605FB0CFC12EB074241EB174193
:1046100012EB0C4251EB1C4148BF7047921841EB22
:104620000101A3F10103704778B58BB2C3F3C40154
:10463000C2F1FF0411FB04F581B2C1F3C40010FB09
:104640000250803000EBC01505EBC030C0F3C455FC
:10465000BDF8000065F3C7004D07AD0E05EB513501
:1046600015FB02F55E07B60E06EB533616FB045536
:10467000803505EBC51606EBC536B60E66F30200AF
:1046800005EBC51606EBC535C5F3C25565F34F30CE
:10469000C3F3042313FB04F3C1F3042111FB023120
:1046A000803101EBC11202EBC131C1F3C45161F39E
:1046B0000C20ADF8000080B278BD2DE9F04F064621
:1046C000C87A89B015460F46022803D8012009B0E0
:1046D000BDE8F08F18463A69B96816F0FDFD041E72
:1046E000F5D0207D00F01F0021F0ECFC08B1062081
:1046F00008E0207D00F01F0021F0D4FC08B1052067
:1047000000E00420226A814622B12946304629F081
:104710006BFAB7E0A069E8B3294602A81FF0A0FA37
:10472000388818B97888B0F5807F2AD0A888298879
:104730006A88401A401C01B2E8883B1D801A401C60
:1047400002B27888CDE90003B7F9003002A816F06C
:104750003BFABDF8080029880844ADF80800BDF808
:104760000A0069880844ADF80A00BDF80C002988E1
:104770000844ADF80C00BDF80E0069880844ADF897
:104780000E0002AA04A8B16815F0D4FF002879D061
:1047900004A800E00DE0D6F80880B060CDF80090E5
:1047A0002A4639463046A3691FF09EFFC6F80880A6
:1047B00068E02A4604A8B16815F0BCFF002861D063
:1047C000BDF81400BDF81010401A401C0FFA80FB11
:1047D0000BEB4B0023F0DEFA039004A901A8D6F8F6
:1047E00008A01FF03DFA012101A81FF0CEFABDF983
:1047F0001000B5F90010BDF91280401A0690B5F905
:104800000200A8EB000534E001AA514607A815F004
:1048100091FF60B30398009006985B4601B22AB2FC
:10482000204622F031F801280CD0204621F07FFFED
:10483000039823F0FBFA204621F079FF0020C6F808
:1048400008A044E707A8B060CDF8009001AA394657
:104850003046039B1FF048FFBDF80600401CADF832
:104860000600BDF80A00401CADF80A006D1C08F1F6
:104870000108BDF916004045C6DAC6F808A003983D
:1048800023F0D4FA204621F052FF1FE738B5044642
:104890002021FCF76FFBFF20A0761FF0B8FC0090F2
:1048A000BDF80000A081FE4820604FF6FF706060F8
:1048B000A0601FF0ACFC0090BDF80000E081052076
:1048C00026F08EFF0090BDF8000020820020E076E8
:1048D00038BD2DE9FF4FB5B0887E429F1E469246F7
:1048E0000C4602287ED9206800287BD03598C06904
:1048F000002877D0202217A8FCF702FB206803903D
:10490000002E6FD0307800286CD0359851468268E0
:104910002DA815F00FFF002864D0207FB0F1000B08
:1049200001D14FF0010B607F800707D4BAF8041063
:10493000BAF80000081A401C03B20FE0B4F91200E4
:10494000627F41F6FF718DE80700B4F914303146FB
:1049500005A8226828F010FABDF914300398B4F9BC
:1049600012100025B0F908906A1E01EB09000590AD
:10497000BAF80000ADF81000BAF80210ADF8121045
:10498000B4F916000A90B4F918000144ADF81210F9
:1049900007B3F8B9BAF9021000291BDAD7F808C032
:1049A000ACEB0100002801DCA1EB0C000599C1F182
:1049B000000C4FF4806101EB4C01884200DD3A604D
:1049C0003868002806DB0546BDF81200B98808449F
:1049D000ADF81200617F0020CDE90001B4F9142088
:1049E000701900E0ACE02F93039917F0B3F900EBD6
:1049F000050829E0617F0020CDE90001B4F9142009
:104A000006EB08002F9B039917F0A4F9454600EB2D
:104A10000508BDF812100598084400B2ADF8120060
:104A20007FB110F5806F0CDB3868002809DA3D6033
:104A3000BDF91210BAF90200081A7860BAF902003A
:104A4000B860705D00287BD03598BDF91210806881
:104A50004944B0F902008142CCDB5846CDF8C0B0E1
:104A6000BBF1020F02D0032816D029E0607F00902E
:104A7000B4F91430A8EB05017019039A28F0DAF99B
:104A8000074650461FF048F9C11BBDF8100001EB66
:104A9000D17100EB610011E0607F0090B4F9143037
:104AA000A8EB05017019039A28F0C4F9074650468F
:104AB0001FF032F9BDF81010C01B0844ADF810000B
:104AC000D4E9019BD94502D94846D9468346A07FFF
:104AD000800717D014A800F098F9A089ADF850000D
:104AE000039890F90E0000B90120ADF85200A07EA5
:104AF0008DF85800A07FC1089DF8590061F30100AE
:104B00008DF8590000200C901FF081FB31901FA8F8
:104B100000F0AAF9208AADF88000BDF910003290AB
:104B20006CE100BFBDF810100A9800270844ADF8EA
:104B3000100070190D90A8EB050006970E90BDE0CF
:104B400060E100200090A9F57F40FF380AD0ABF566
:104B50007F41FF3906D0534A06982918126830461B
:104B60009047009006AB07AA08A90D9817F0DAF84D
:104B7000607FC0070AD00898232802D0012F13D0E5
:104B800004E047B1012F0AD0022F0BD0E06831902A
:104B9000022F4AD04BE006980C9001200EE000272F
:104BA000E06843E0002009E0202808D106990C982D
:104BB000081A072804D0A0891390022007467DE038
:104BC000DDE90C21114411A80622FCF795F900201B
:104BD0008DF84A009DF845001DF088FC07469DF8B9
:104BE00044001DF083FC07EB00100B909DF847007C
:104BF0001DF07CFC07469DF846001DF077FC07EB96
:104C0000001000909DF849001DF070FC07469DF8CB
:104C100048001DF06BFC07EB0010C2B20098C1B257
:104C20000B98C0B21FF02AFBC6E713983190DDE95C
:104C30000721039820F013FD33904FF6FF70814554
:104C400022D0834520D0009949451DD359451BD218
:104C5000BDF81000ADF80000BDF81210ADF802105C
:104C6000A28A02443398401E1044ADF8040005980F
:104C70006A46401E0844ADF806001FA935981FF08B
:104C800079FFE089ADF8C400BDF8C400ADF8680054
:104C900004AA17A9089B35981FF047FD339803E035
:104CA000803D0408E0010020002807DDBDF8100069
:104CB000A18A014433980844ADF8100006990E9873
:104CC00088423FF63EAFA07F800723D53298ADF8EB
:104CD00004002068BDF9521002ABB0F9080001EBE6
:104CE000D17100EBD070401000EB6100BDF81210E4
:104CF00001AA0844BDF81010ADF80810ADF8060080
:104D0000ADF80A00BDF8C400ADF8500014A93598FC
:104D100000F09DF8A07FC0071FD03298ADF80000CA
:104D20002068BDF8121002AB028940891144091AAB
:104D300003986A4690F90D00081ABDF81010ADF8F6
:104D40000810ADF80200ADF80A00BDF8C400ADF8D7
:104D5000500014A9359800F07AF8617F0020CDE961
:104D6000000106EB0800B4F9142007462F9B0399B5
:104D700016F0F0FF454600EB0508BAF80000ADF864
:104D800010003098022802D0032816D029E0607F56
:104D90000090B4F91430A8EB05013846039A28F0C6
:104DA00049F8074650461EF0B7FFC01BBDF810106B
:104DB00000EBD07001EB600011E0607F0090B4F96F
:104DC0001430A8EB05013846039A28F033F807465B
:104DD00050461EF0A1FFBDF81010C01B0844ADF8EE
:104DE0001000BDF8121005980844359900B2ADF8CE
:104DF00012008968B1F90610884203DC705D002852
:104E00007FF490AE39B0BDE8F08F38B504460A2182
:104E1000FCF7B0F801206080FF202072BDF8001080
:104E2000002060F3020189B260F3C70189B260F328
:104E30000C2189B260F34F31ADF8001088B20090B8
:104E4000BDF800000090BDF80000208038BD30B4EF
:104E50004C88002C06D00C7A022C03D9046AA44694
:104E600030BC604730BC704738B504463821FCF789
:104E700081F81FF0BFFA0090BDF8000024F8040F7D
:104E80001FF0B8FA0090BDF8000060801FF0C9F96B
:104E90000090BDF80000E080FF2525720220A0727E
:104EA0001FF0BFF90090BDF8000060831FF0B9F952
:104EB0000090BDF8000020850748206104F8015CDF
:104EC000A57584F82650A57784F83250E07F20F04D
:104ED0003E001E30E07738BD803D040878B58BB2C7
:104EE000C3F3C401C2F1FF0411FB04F581B2C1F3A5
:104EF000C40010FB0250803000EBC01505EBC03041
:104F0000C0F3C455BDF8000065F3C7004D07AD0EF2
:104F100005EB513515FB02F55E07B60E06EB533671
:104F200016FB0455803505EBC51606EBC536B60EE7
:104F300066F3020005EBC51606EBC535C5F3C25591
:104F400065F34F30C3F3042313FB04F3C1F30421CF
:104F500011FB0231803101EBC11202EBC131C1F30F
:104F6000C45161F30C20ADF8000080B278BD78B573
:104F70008BB2C3F3C401C2F1FF0411FB04F581B28B
:104F8000C1F3C40010FB0250803000EBC01505EBEC
:104F9000C030C0F3C455BDF8000065F3C7004D072D
:104FA000AD0E05EB513515FB02F55E07B60E06EBAF
:104FB000533616FB0455803505EBC51606EBC53692
:104FC000B60E66F3020005EBC51606EBC535C5F354
:104FD000C25565F34F30C3F3042313FB04F3C1F34D
:104FE000042111FB0231803101EBC11202EBC1310E
:104FF000C1F3C45161F30C20ADF8000080B278BD5C
:1050000007B58107BDF8043002D020F8023B521EDC
:10501000BDF8041001EB01410EE002C0103A02C0DD
:1050200040F8081B40F8041C40F8101B40F80C1C0A
:1050300040F8081C40F8041C102AEED802E020F8C2
:10504000023B521E002AFAD10EBD00004FF4B4718B
:1050500090FBF1F201FB1200002802DA00F5B470B7
:1050600000B216495A2802DA31F910007047A0F14F
:105070005A025A2A03D2C0F1B40000B2F4E7A0F1F8
:10508000B4025A2A01D210B202E0C0F5B47000B2E4
:1050900031F81000404200B2704730B504020020E1
:1050A000831803FB03F5A54200D818465208F7D130
:1050B000020900070A80000E488030BD183F04082E
:1050C0002DE9F8431E461746884681460025FD4CCB
:1050D0000DE00090D0F800C033463A4641464846BD
:1050E000E047002808D0022800D1012508342068B4
:1050F0000028EED115B10220BDE8F8830120FBE7BE
:105100002DE9FF4F81B00025DDE90E8699469246D4
:105110008B462C46EB4F14E038F91400411C0FD09D
:1051200057F8300060B10090D0F800C04B465246AE
:1051300059460198E047002807D0022800D10125F0
:10514000641CB442E8DB1DB1022005B0BDE8F08F5D
:105150000120FAE70020DB4A014600BF52F8313057
:105160000BB1401CC0B2491CC9B21029F6D370471C
:105170002DE9F05F06460A9F8A461D46B86900FB86
:1051800002F18C12002800DD641C97F82830544589
:1051900002DA980707D4D5E08C120AEB050CA44577
:1051A00002DA98077ED483E0521C424341F3950112
:1051B00042F395044FEA2129221204F0FF08C9B2F4
:1051C000A9EB0A04914505D0002803DA11B9FF21A3
:1051D0009146641E914528D1002C0CDBAC420ADAC2
:1051E00001EB08004108980701D5C1F1FF01305DCE
:1051F00000F0B7FD305597F82800641C800706D5ED
:10520000A9EB0A01A9424DDA8EE030460AE0AC4231
:1052100000DD2C46002C45D006DD00BFA5EB0401C7
:1052200006EB040022F08DFE89E04FF0FF0B002812
:1052300044DAF869404248434FEAA028002C0DDBCD
:10524000AC420BDA08FB01F0C0F34721980701D507
:10525000C1F1FF01305D00F084FD3055B969A8F15E
:10526000FF0041438812641E11D4AC420FDAC8F12A
:10527000FF014143ABEB6120C1B297F828008007E2
:1052800001D5C1F1FF01305D00F06BFD305597F89D
:105290002800A41C800709D5A9EB0A01491EA942D0
:1052A0004DDC00E04EE00029AFDC48E0AC4202DD1E
:1052B0000120BDE8F09F002CB0DA40E0C1F1FF0012
:1052C000F96941434FEAA128002C0EDBAC420CDA0D
:1052D00000FB08F0ABEB6020C1B2980701D5C1F12B
:1052E000FF01305D00F03DFD3055B969C8F1FF00A8
:1052F00041438912641C0ED4AC420CDA4843C0F31B
:10530000472197F82800800701D5C1F1FF01305DE2
:1053100000F027FD305597F82800641C800707D55A
:10532000A9EB0A01A9420DDC0029BFF66EAF06E029
:10533000AC4200DD2C46002C04D03FF76FAF4FF09D
:105340000200B6E74FF00000B3E72DE9F0478046D2
:10535000089D1F46E86900FB01F39B12002806DD4B
:10536000934206DD95F8280080070DD48BE0934228
:10537000F8DBCB1943439B12002808DD934239DA4E
:1053800095F8280080077ED40120BDE8F08793427D
:10539000F6DCA869521C504340F395000312C0B2DA
:1053A000FF22002828D000BF6E6AC0F1FF0404FB72
:1053B00006F4A2EB242600BFA3EB0104A14636D0DD
:1053C000002C15DBBC4213DAC0F1FF00C6F1FF016F
:1053D0004843A2EB6020C1B295F82800800701D5B0
:1053E000C1F1FF0118F8040000F0BBFC08F804004C
:1053F000641C1CE0A869CEE74FF0FF06DCE7002C38
:1054000010DBBC420EDAA6EB6000C1B295F82800B2
:10541000800701D5C1F1FF0118F8040000F0A1FCDC
:1054200008F80400686A641C361ABC4202DA686A2A
:10543000B042E4DBBC4218DA002C16DBA8697043EA
:1054400080127043C0F34721E869002801DAC1F1F6
:10545000FF0195F82800800701D5C1F1FF0118F878
:10546000040000F07EFC08F8040095F8280080078E
:1054700007D54946B94506DC00290DDB404609E061
:1054800001E0641C01D500207FE7BC4204DC391B2D
:1054900008EB040022F055FD022076E7F8B5069CE3
:1054A000A58A266A521B658A12B2491B94F82850B5
:1054B00009B24FEAC5753EB100947DB3FFF745FFD1
:1054C000F8BD0000E010002085B1207C810728D0C5
:1054D00000F00301012924D0022901D1511C20D45C
:1054E000C043800728D1002A1BDC25E0227C02F083
:1054F0000304022C15D0D543AD0712D0012C01D1E5
:1055000000290EDC920701EB030208D0002A13DB0E
:1055100049420FD50021002B0EDD0FE014E0002AD8
:1055200001DA0120CCE74A4206D49A420ADA991AF3
:10553000104405E0994201DB0020C1E7994201DAFD
:1055400022F0FFFC0220BBE7FFF712FEB8E72DE9CF
:10555000FF4F81B08B460E9D16461C46B5F90A10CA
:10556000B5F90C00571AB5F9082005F11009ABEB95
:10557000020305F13C0AB4285BDAB5F90E20B42A1F
:105580007EDA00287CD0002A7AD0904278DDB142C1
:1055900058DC696D79434FEAA12CA96A7F1C7943D5
:1055A0008912A0F20F15582D01D8002909DB451EDC
:1055B000592D01D8002904DB5B38B32802D2002919
:1055C00000DD0021A2F20F10582801D8002909DBC4
:1055D000501E592801D8002904DB5B3AB32A02D2B5
:1055E000002900DD0021ACEB010001EB600001258A
:1055F000C71AA74200DD2746002F0DDD3BB2324619
:105600005946CDF800900198FFF748FF050003D1F7
:105610003946019822F095FCA74200DD2746002F6D
:1056200000DA0027CDF800A05BE0B54274D128462F
:105630008BE568DDB5F90E20B42A64DD904262DDA9
:10564000B14201DA012080E5696D79434FEAA12C6E
:10565000A96A7F1C79438912A0F20F15582D01D831
:10566000002909DB451E592D01D8002904DB5B38D0
:10567000B32802D2002900DD0021A2F20F1000E0C1
:1056800041E0582801D8002909DB501E592801D8CB
:10569000002904DB5B3AB32A02D2002900DD002195
:1056A000ACEB010001EB60000125C71AA74200DD49
:1056B0002746002F0DDD3BB232465946CDF800A0FB
:1056C0000198FFF7EBFE050003D13946019822F05F
:1056D00038FCA74200DD2746002F00DA0027CDF86E
:1056E00000900BEB070001B20198E41B384423B291
:1056F00007463246FFF7D2FE060096D121463846CD
:1057000022F01FFC91E70127B846B42805D038B134
:1057100009DAB14209DC0AE047E0B14210DC04E0FA
:10572000B14202DC0CE0B14201DC032708E0234671
:1057300032465946CDF800900198FFF7AFFE074674
:10574000B5F90E00B42806D060B1B5F90A000FDA39
:10575000B04204DC0EE0B5F90A00B04206DD4FF0BD
:10576000030803E0B5F90A00B042F8DDBFB10EE06E
:10577000B042F4DD234632465946CDF800A00198E8
:10578000FFF78CFE804657B1B8F1000F07D0032F0A
:1057900002D0012F05D008E0B8F1030F05D1002099
:1057A000D3E44046B8F1010FFAD00220CDE42DE950
:1057B000FE4F8046DDF830900E461C4699F81200E8
:1057C000174600F0010AB9F91050684609F10801BE
:1057D0001EF06AFABDF90200BAF1000F30D0B842EB
:1057E00051DCBDF90600B8424DDB00BFBDF9000039
:1057F0004119B14205DCBDF904203119521B914217
:1058000009DDBDF902104A19BA4240DCBDF9062093
:10581000521BBA423BDBBAF1000F18D0801B00D5F7
:105820000020A04231DCBDF90410891B091A491C73
:105830004218A24200DD211A002926DB4044EFE095
:10584000B84213DCBDF90600B8420FDBCEE7871B78
:10585000A7420BDC002F03DB3946404622F071FBE8
:10586000BDF90400851B6D1C002D02DC0020BDE885
:10587000FE8FA54204DA611B08EB050022F061FBF4
:105880001FB9A54201D10120F1E70220EFE7BDF8E1
:105890000430821B181A401C0FFA80FCBDF8060069
:1058A000401A401C03B2781A00B2A84202DA281A41
:1058B000401E01E0591B401AD9F8141000B202230F
:1058C000CF6803EB4003FB5A37F810609B1B1EB2F6
:1058D0008B68496833F8103037F810004FF0000734
:1058E00000EB010B02EB0C00401B18440FFA80F98F
:1058F0005019C01A401E05B2BAF1000F22D06BE059
:10590000F11B01EB0B0010F8010C029009EB0700F2
:105910005FEA000A08D4A24506DA18F80A100298CD
:1059200000F01FFA08F80A00B5EB070A08D4A245F0
:1059300006DA18F80A10029800F013FA08F80A00BC
:105940007F1C3FB2B742DBDB09EB0700A04201DA64
:10595000014600E02146002901DA002002E0A042D1
:1059600000DB204600B2211A404422F0EAFAA81BCC
:10597000411CA14201DA0A4600E02246002A01DA6F
:10598000002402E0A14200DA0C4621B2404647E082
:10599000F11B01EB0B0010F8010CC0F1FF000290AD
:1059A00009EB07005FEA000A08D4A24506DA18F8F6
:1059B0000A10029800F0D5F908F80A00B5EB070ABA
:1059C00008D4A24506DA18F80A10029800F0C9F9BE
:1059D00008F80A007F1C3FB2B742D9DB681CA0421E
:1059E00001DA691C00E02146002901DA002504E003
:1059F000A04201DA6D1C00E025462AB2A9EB0200A4
:105A0000A11A884201DA034600E00B46002B01DAB6
:105A1000002002E0884200DB084601B208EB0200E9
:105A200022F08FFA31E72DE9F0410646069C1D462B
:105A3000B4F90A0090420CDCB4F90E00904208DB85
:105A4000B4F908304F199F4203DBB4F90C008842C7
:105A500002DA0120BDE8F081874203DD381A281AF6
:105A6000401C05B28B4203DD581A291A0DB20644B8
:105A7000B4F9100090420ADB002705E0217DF05DBB
:105A800000F06FF9F0557F1CAF42F7DB24E0B4F96A
:105A9000121091420ADC002705E0617DF05D00F004
:105AA00060F9F0557F1CAF42F7DB15E0677D237D81
:105AB000091AFC1A101A6043491C90FBF1F053FAC2
:105AC00080F0C7B2002405E0305D394600F049F9A6
:105AD0003055641CAC42F7DB0220BBE72DE9F041F6
